{
  "_format": "hh-sol-artifact-1",
  "contractName": "VedicAutoMatch",
  "sourceName": "contracts/VedicAutoMatch.sol",
  "abi": [
    {
      "anonymous": false,
      "inputs": [
        {
          "indexed": true,
          "internalType": "uint256",
          "name": "matchId",
          "type": "uint256"
        },
        {
          "indexed": false,
          "internalType": "uint256",
          "name": "profileA",
          "type": "uint256"
        },
        {
          "indexed": false,
          "internalType": "uint256",
          "name": "profileB",
          "type": "uint256"
        }
      ],
      "name": "MatchCreated",
      "type": "event"
    },
    {
      "anonymous": false,
      "inputs": [
        {
          "indexed": true,
          "internalType": "uint256",
          "name": "matchId",
          "type": "uint256"
        },
        {
          "indexed": false,
          "internalType": "bytes32",
          "name": "encryptedScore",
          "type": "bytes32"
        }
      ],
      "name": "MatchScoreSubmitted",
      "type": "event"
    },
    {
      "anonymous": false,
      "inputs": [
        {
          "indexed": true,
          "internalType": "uint256",
          "name": "matchId",
          "type": "uint256"
        },
        {
          "indexed": false,
          "internalType": "enum VedicAutoMatch.MatchState",
          "name": "newState",
          "type": "uint8"
        }
      ],
      "name": "MatchStateChanged",
      "type": "event"
    },
    {
      "anonymous": false,
      "inputs": [
        {
          "indexed": true,
          "internalType": "uint256",
          "name": "profileId",
          "type": "uint256"
        },
        {
          "indexed": true,
          "internalType": "address",
          "name": "owner",
          "type": "address"
        }
      ],
      "name": "ProfileCreated",
      "type": "event"
    },
    {
      "inputs": [
        {
          "internalType": "uint256",
          "name": "matchId",
          "type": "uint256"
        }
      ],
      "name": "consentToReveal",
      "outputs": [],
      "stateMutability": "nonpayable",
      "type": "function"
    },
    {
      "inputs": [
        {
          "internalType": "bytes32",
          "name": "_encryptedName",
          "type": "bytes32"
        },
        {
          "internalType": "bytes32",
          "name": "_encryptedHandle",
          "type": "bytes32"
        }
      ],
      "name": "createProfile",
      "outputs": [
        {
          "internalType": "uint256",
          "name": "",
          "type": "uint256"
        }
      ],
      "stateMutability": "nonpayable",
      "type": "function"
    },
    {
      "inputs": [
        {
          "internalType": "uint256",
          "name": "matchId",
          "type": "uint256"
        }
      ],
      "name": "getMatch",
      "outputs": [
        {
          "components": [
            {
              "internalType": "uint256",
              "name": "id",
              "type": "uint256"
            },
            {
              "internalType": "uint256",
              "name": "profileA",
              "type": "uint256"
            },
            {
              "internalType": "uint256",
              "name": "profileB",
              "type": "uint256"
            },
            {
              "internalType": "enum VedicAutoMatch.MatchState",
              "name": "state",
              "type": "uint8"
            },
            {
              "internalType": "bytes32",
              "name": "encryptedScore",
              "type": "bytes32"
            },
            {
              "internalType": "uint256",
              "name": "createdAt",
              "type": "uint256"
            },
            {
              "internalType": "uint256",
              "name": "consentedA",
              "type": "uint256"
            },
            {
              "internalType": "uint256",
              "name": "consentedB",
              "type": "uint256"
            }
          ],
          "internalType": "struct VedicAutoMatch.Match",
          "name": "",
          "type": "tuple"
        }
      ],
      "stateMutability": "view",
      "type": "function"
    },
    {
      "inputs": [
        {
          "internalType": "uint256",
          "name": "profileId",
          "type": "uint256"
        }
      ],
      "name": "getMyProfileData",
      "outputs": [
        {
          "internalType": "bytes32",
          "name": "",
          "type": "bytes32"
        },
        {
          "internalType": "bytes32",
          "name": "",
          "type": "bytes32"
        }
      ],
      "stateMutability": "view",
      "type": "function"
    },
    {
      "inputs": [
        {
          "internalType": "uint256",
          "name": "",
          "type": "uint256"
        }
      ],
      "name": "matches",
      "outputs": [
        {
          "internalType": "uint256",
          "name": "id",
          "type": "uint256"
        },
        {
          "internalType": "uint256",
          "name": "profileA",
          "type": "uint256"
        },
        {
          "internalType": "uint256",
          "name": "profileB",
          "type": "uint256"
        },
        {
          "internalType": "enum VedicAutoMatch.MatchState",
          "name": "state",
          "type": "uint8"
        },
        {
          "internalType": "bytes32",
          "name": "encryptedScore",
          "type": "bytes32"
        },
        {
          "internalType": "uint256",
          "name": "createdAt",
          "type": "uint256"
        },
        {
          "internalType": "uint256",
          "name": "consentedA",
          "type": "uint256"
        },
        {
          "internalType": "uint256",
          "name": "consentedB",
          "type": "uint256"
        }
      ],
      "stateMutability": "view",
      "type": "function"
    },
    {
      "inputs": [],
      "name": "nextMatchId",
      "outputs": [
        {
          "internalType": "uint256",
          "name": "",
          "type": "uint256"
        }
      ],
      "stateMutability": "view",
      "type": "function"
    },
    {
      "inputs": [],
      "name": "nextProfileId",
      "outputs": [
        {
          "internalType": "uint256",
          "name": "",
          "type": "uint256"
        }
      ],
      "stateMutability": "view",
      "type": "function"
    },
    {
      "inputs": [
        {
          "internalType": "uint256",
          "name": "matchId",
          "type": "uint256"
        },
        {
          "internalType": "bytes32",
          "name": "decryptedNameA",
          "type": "bytes32"
        },
        {
          "internalType": "bytes32",
          "name": "decryptedHandleA",
          "type": "bytes32"
        },
        {
          "internalType": "bytes32",
          "name": "decryptedNameB",
          "type": "bytes32"
        },
        {
          "internalType": "bytes32",
          "name": "decryptedHandleB",
          "type": "bytes32"
        }
      ],
      "name": "onDecryptionFulfilled",
      "outputs": [],
      "stateMutability": "nonpayable",
      "type": "function"
    },
    {
      "inputs": [
        {
          "internalType": "uint256",
          "name": "",
          "type": "uint256"
        }
      ],
      "name": "profiles",
      "outputs": [
        {
          "internalType": "uint256",
          "name": "id",
          "type": "uint256"
        },
        {
          "internalType": "address",
          "name": "owner",
          "type": "address"
        },
        {
          "internalType": "bytes32",
          "name": "encryptedName",
          "type": "bytes32"
        },
        {
          "internalType": "bytes32",
          "name": "encryptedHandle",
          "type": "bytes32"
        },
        {
          "internalType": "uint256",
          "name": "createdAt",
          "type": "uint256"
        }
      ],
      "stateMutability": "view",
      "type": "function"
    },
    {
      "inputs": [
        {
          "internalType": "uint256",
          "name": "profileA",
          "type": "uint256"
        },
        {
          "internalType": "uint256",
          "name": "profileB",
          "type": "uint256"
        },
        {
          "internalType": "bytes32",
          "name": "encryptedScore",
          "type": "bytes32"
        }
      ],
      "name": "submitMatchScore",
      "outputs": [
        {
          "internalType": "uint256",
          "name": "",
          "type": "uint256"
        }
      ],
      "stateMutability": "nonpayable",
      "type": "function"
    },
    {
      "inputs": [
        {
          "internalType": "uint256",
          "name": "matchId",
          "type": "uint256"
        },
        {
          "internalType": "enum VedicAutoMatch.MatchState",
          "name": "newState",
          "type": "uint8"
        }
      ],
      "name": "updateMatchState",
      "outputs": [],
      "stateMutability": "nonpayable",
      "type": "function"
    },
    {
      "inputs": [
        {
          "internalType": "address",
          "name": "",
          "type": "address"
        },
        {
          "internalType": "uint256",
          "name": "",
          "type": "uint256"
        }
      ],
      "name": "userProfiles",
      "outputs": [
        {
          "internalType": "uint256",
          "name": "",
          "type": "uint256"
        }
      ],
      "stateMutability": "view",
      "type": "function"
    }
  ],
  "bytecode": "0x60808060405234601d5760015f556001805561099790816100228239f35b5f80fdfe60806040526004361015610011575f80fd5b5f3560e01c80633c8c92e4146108775780633d092b3d146107755780634768d4ef146106f357806371544278146106885780639312baa81461062d5780639b3cba26146104dd578063a5b02d4714610452578063c36fe3d6146103f5578063c5adf7c9146103d8578063cd1d81ff146103bc578063f4f63e0b146101d05763fb4d48b51461009d575f80fd5b346101cc5760403660031901126101cc575f546100b98161093f565b5f5560405160a0810181811067ffffffffffffffff8211176101b8576040528181526004602082013381526040830182358152606084019060243582526080850192428452865f52600260205260405f2095518655600186019060018060a01b039051166bffffffffffffffffffffffff60a01b82541617905551600285015551600384015551910155335f52600460205260405f2090815491680100000000000000008310156101b857826101769160016020950181556108d0565b81549060031b9083821b915f19901b19161790556040519033817f9f150021d8fd04eb219a39e3019273bddf99a9a2e434dd2aa8132e32ea9244b05f80a38152f35b634e487b7160e01b5f52604160045260245ffd5b5f80fd5b346101cc5760603660031901126101cc576004355f818152600260205260409020600101546024359190604435906001600160a01b031615610381575f838152600260205260409020600101546001600160a01b03161561034657600154916102388361093f565b600155610243610906565b91838352602083019082825260408401868152606085015f81526080860183815260a087019142835260c08801935f855260e08901965f88528a5f52600360205260405f2099518a555160018a015551600289015551956005871015610332576020998860078c988c9b977f5f6f5a0de1d83b1d2ab2af48b8e7ffaba041d7d1b99fd698fbf60083def9216c976040976103038f9b9e7ff784a945993cf2638dfe90dd8f38ab7b49f27f5983afcf57339f40807a86e2b89f600301610927565b51600486015551600585015551600684015551910155825191825286820152a2604051908152a2604051908152f35b634e487b7160e01b5f52602160045260245ffd5b60405162461bcd60e51b8152602060048201526013602482015272141c9bd99a5b194810881b9bdd08199bdd5b99606a1b6044820152606490fd5b60405162461bcd60e51b8152602060048201526013602482015272141c9bd99a5b194810481b9bdd08199bdd5b99606a1b6044820152606490fd5b346101cc575f3660031901126101cc5760205f54604051908152f35b346101cc575f3660031901126101cc576020600154604051908152f35b346101cc5760203660031901126101cc576004355f52600260205260a060405f20805490600180841b0360018201541690600281015460046003830154920154926040519485526020850152604084015260608301526080820152f35b346101cc5760203660031901126101cc576004355f818152600260205260409020600101546001600160a01b031633036104ac575f9081526002602081815260409283902091820154600390920154835192835290820152f35b60405162461bcd60e51b81526020600482015260096024820152682737ba1037bbb732b960b91b6044820152606490fd5b346101cc5760203660031901126101cc57600435805f52600360205260405f208054156105f65760018101545f52600260205260018060a01b03600160405f2001541633145f1461058d57600160068201555b60016006820154148061057f575b61054457005b600301600160ff198254161790557fb791e08f46cddf15747324bbe8d5c153f33cb82f51598529287125b057e755af602060405160018152a2005b50600160078201541461053e565b60028101545f5260026020523360018060a01b03600160405f20015416145f146105bd5760016007820155610530565b60405162461bcd60e51b8152602060048201526011602482015270139bdd0818481c185c9d1a58da5c185b9d607a1b6044820152606490fd5b60405162461bcd60e51b815260206004820152600f60248201526e13585d18da081b9bdd08199bdd5b99608a1b6044820152606490fd5b346101cc5760a03660031901126101cc57600435805f526003602052600360405f2001600360ff198254161790557fb791e08f46cddf15747324bbe8d5c153f33cb82f51598529287125b057e755af602060405160038152a2005b346101cc5760403660031901126101cc5760043560243560058110156101cc5760207fb791e08f46cddf15747324bbe8d5c153f33cb82f51598529287125b057e755af91835f52600382526106e381600360405f2001610927565b6106f060405180926108f9565ba2005b346101cc5760203660031901126101cc576004355f52600360205261010060405f20805490600181015490600281015460ff60038301541661075f60048401549160058501549360076006870154960154966040519889526020890152604088015260608701906108f9565b608085015260a084015260c083015260e0820152f35b346101cc5760203660031901126101cc575f60e0610791610906565b8281528260208201528260408201528260608201528260808201528260a08201528260c082015201526004355f52600360205260405f206107d0610906565b815481526001820154602082019081526002830154926040830193845260ff600382015416936060840160058610156103325761010095815261085d6004840154916080870192835260058501549360a08801948552600760068701549660c08a0197885201549660e08901978852604051985189525160208901525160408801525160608701906108f9565b5160808501525160a08401525160c08301525160e0820152f35b346101cc5760403660031901126101cc576004356001600160a01b038116908190036101cc57602435905f52600460205260405f2080548210156101cc576020916108c1916108d0565b90549060031b1c604051908152f35b80548210156108e5575f5260205f2001905f90565b634e487b7160e01b5f52603260045260245ffd5b9060058210156103325752565b60405190610100820182811067ffffffffffffffff8211176101b857604052565b9060058110156103325760ff80198354169116179055565b5f19811461094d5760010190565b634e487b7160e01b5f52601160045260245ffdfea26469706673582212200eef4bc5ad6ef1afbf7426c7d435520e74fa72dd39313f349b643d56714a7c0964736f6c634300081c0033",
  "linkReferences": {},
  "deployedLinkReferences": {}
}